:100000000C9458000C9480000C9480000C94800098
:100010000C9480000C9480000C9480000C94800060
:100020000C9480000C9480000C9480000C94800050
:100030000C9480000C9480000C9480000C94800040
:100040000C94661A0C9480000C94341A0C940E1ABA
:100050000C9480000C9480000C9480000C94800020
:100060000C9480000C948000000000002300260007
:10007000290004040404040404040202020202022B
:10008000030303030303010204081020408001025C
:1000900004081020010204081020000000080002DB
:1000A0000100000304070000000000000000B01A77
:1000B00011241FBECFEFD8E0DEBFCDBF13E0A0E01C
:1000C000B1E0ECE6FCE402C005900D92A036B10769
:1000D000D9F726E0A0E6B3E001C01D92A63AB20728
:1000E000E1F710E0C8E5D0E004C02197FE010E94CE
:1000F0002926C735D107C9F70E94081B0C9434265E
:100100000C940000409107015091080185E098E0AF
:10011000489F9001499F300D589F300D1124275E54
:10012000394C3093080120930701A6E9B0E00E9402
:10013000DB250895382FE2E3F4E02081239F020EAF
:1001400020E0211D20832181239F020E20E0211D1C
:1001500021832281239F020E20E0211D228311246E
:10016000339685E0E43FF80741F7089580E991E090
:100170000895AF92BF92CF92DF92EF92FF920F93CA
:100180001F93CF93DF936C017B018B01040F151F2D
:10019000EB015E01AE18BF08C017D10759F0699195
:1001A000D601ED91FC910190F081E02DC6010995F9
:1001B000892B79F7C501DF91CF911F910F91FF90A6
:1001C000EF90DF90CF90BF90AF900895FC01538DDA
:1001D000448D252F30E0842F90E0821B930B541721
:1001E00010F0CF96089501970895FC01918D828DAE
:1001F000981761F0A28DAE0FBF2FB11D5D968C9147
:10020000928D9F5F9F73928F90E008958FEF9FEF85
:100210000895FC01918D828D981731F0828DE80F41
:10022000F11D858D90E008958FEF9FEF0895FC01FB
:10023000918D228D892F90E0805C9F4F821B9109C8
:100240008F739927089584EF95E00E94170121E0AC
:10025000892B09F420E0822F089580E090E0892B1B
:1002600029F00E94230181110C9400000895FC01E3
:10027000A48DA80FB92FB11DA35ABF4F2C91848D07
:1002800090E001968F739927848FA689B7892C9364
:10029000A089B1898C91837080648C93938D848DB7
:1002A000981306C00288F389E02D80818F7D8083BA
:1002B0000895EF92FF920F931F93CF93DF93EC017A
:1002C00081E0888F9B8D8C8D98131AC0E889F989FD
:1002D000808185FF15C09FB7F894EE89FF89608300
:1002E000E889F98980818370806480839FBF81E081
:1002F00090E0DF91CF911F910F91FF90EF900895C3
:10030000F62E0B8D10E00F5F1F4F0F731127E02E9D
:100310008C8D8E110CC00FB607FCFACFE889F989D5
:10032000808185FFF5CFCE010E943701F1CFEB8DA3
:10033000EC0FFD2FF11DE35AFF4FF0829FB7F894A9
:100340000B8FEA89FB8980818062CFCFCF93DF93C7
:10035000EC01888D8823B9F0AA89BB89E889F989DD
:100360008C9185FD03C0808186FD0DC00FB607FC12
:10037000F7CF8C9185FFF2CF808185FFEDCFCE0145
:100380000E943701E9CFDF91CF9108953FB7F894EC
:100390008091670390916803A0916903B0916A030B
:1003A00026B5A89B05C02F3F19F00196A11DB11DD0
:1003B0003FBFBA2FA92F982F8827BC01CD01620F0C
:1003C000711D811D911D42E0660F771F881F991FC7
:1003D0004A95D1F708958F929F92AF92BF92CF9294
:1003E000DF92EF92FF924B015C010E94C6016B010C
:1003F0007C010E94C6016C197D098E099F09683E27
:10040000734081059105A8F321E0821A9108A108A3
:10041000B10888EEC80E83E0D81EE11CF11C8114DF
:100420009104A104B10429F7FF90EF90DF90CF90E1
:10043000BF90AF909F908F9008952FB7F8946091E0
:1004400063037091640380916503909166032FBFED
:100450000895CF92DF92EF92FF92CF93C82F0E9420
:100460001D026B017C0120E03C2FA8E1B1E00E945D
:10047000DB259B01AC01C701B6010E94EA25CF91A3
:10048000FF90EF90DF90CF9008950F931F93CF933D
:10049000DF93EB018A010E942902AC0123E056950B
:1004A00047952A95E1F7577096FF06C02FEF37E082
:1004B000B901641B750BAB01E52FEE0FEE0FF0E0F9
:1004C000E354FE4F2081318146955281459F200D96
:1004D000311D112497FF03C0319521953109305802
:1004E0000C1B1D0B209FB001319FC001E0E0309F2D
:1004F000700D811D9E1F219F700D811D9E1F112457
:10050000620F731F8E1F9E1F8C0F9D1FDF91CF9157
:100510001F910F9108954F925F926F927F929F92D9
:10052000AF92BF92CF92DF92EF92FF920F931F9301
:10053000CF93DF9300D01F92CDB7DEB7F090910636
:100540008091940690919506A0919606B091970699
:10055000892B8A2B8B2BD9F00E94C60100912E0487
:1005600010912F042091300430913104601B710BE5
:10057000820B930B0091940610919506209196069C
:10058000309197066017710782079307C8F20E949F
:10059000C60160932E0470932F04809330049093CF
:1005A0003104E0919C06F0919D06309759F04091FE
:1005B00098065091990660919A0670919B068F2D2E
:1005C0000995F82E00912C0410912D044F2C512CDC
:1005D000712C612C0115110509F45EC0D8011C961F
:1005E000EC901C9780919206909193068436910529
:1005F00010F41C961C92D801ED91FC91A280B3805E
:1006000019821A821B82FF2089F1F8013696D12CBB
:10061000C12C2191222319F19280992001F130E01F
:1006200050E040E02F5F3F4F4F4F5F4FC301B2019B
:100630000E94EA259B01AC01892D90E0B0E0A0E08A
:10064000BC01CD016F5F7F4F8F4F9F4F0E94EA2506
:10065000A1E0B0E0AC0FBD1FAC0DBD1D8C93BFEF92
:10066000CB1ADB0A83E0C816D10499F6D8011D968F
:100670004D915C911E9712966D917C919E012F5F1A
:100680003F4FC801F5010995D8011C96EC921C97C3
:1006900014960D911C919ECF80912A0490912B0469
:1006A0008C010F5F1F4F10932B0400932A0449976E
:1006B000B4F10E941D02C0902604D0902704E0905F
:1006C0002804F09029049B01AC012C193D094E0926
:1006D0005F0921F421E030E040E050E088EE93E053
:1006E000089FB001099F700D189F700D1124072EEF
:1006F000000C880B990B0E94B92530939306209328
:10070000920610922B0410922A040E941D026093FC
:1007100026047093270480932804909329040F9053
:100720000F900F90DF91CF911F910F91FF90EF905D
:10073000DF90CF90BF90AF909F907F906F905F9031
:100740004F900895CF92DF92EF92FF920E941D0288
:100750006B017C0161E070E080E090E00E94EB01C1
:100760000E948B020E941D026C197D098E099F094F
:10077000683071058105910568F3FF90EF90DF9077
:10078000CF9008951F93DC01FB017C9111964C9151
:10079000119712961C91972F990F990F990F35E584
:1007A000292F239F020E20E0211D1124822F672F65
:1007B0006074572F507277FD6FC061115BC051118B
:1007C00005C0922F9095892F90E004C025E5280F51
:1007D00090E08BEA4F3F09F424C0442309F47DC024
:1007E000882331F0382F349F030E30E0311D832FE2
:1007F000222321F0249F020E20E0211D992331F0B5
:10080000392F349F030E30E0311D932F1124342FE4
:100810003095339F030E30E0311D1124830F230FD9
:10082000930F1F3F09F421C030E0112321F0119FE5
:10083000312D09F03F5F332309F453C0882331F091
:10084000482F439F040E40E0411D842F222321F0B6
:10085000239F020E20E0211D992331F0492F439F51
:10086000040E40E0411D942F112480832183928344
:100870001F91089551110BC0392F2AEA329F030EA0
:1008800030E0311D11249BEA931B280F9CCF90E090
:100890002095982F80E09ECF611112C051110CC09D
:1008A000392F2AEA329F030E30E0311D11242BEA42
:1008B000231B95E5930FEECF922F909520E08ACFE2
:1008C000511106C025E5280F9BEA981B822FF6CF11
:1008D0002AEA280F90E0932FF8CF9FEF2FEF8FEFAA
:1008E000A0CF90E020E080E0C0CFDA01FC0190E0F2
:1008F00080E02C91208311962C91119721831296E0
:100900002C9112972283019633966817790789F7FD
:100910000895CF93DF93EC010E941D0228EE33E08F
:1009200040E050E00E94B92539832883DF91CF91C0
:1009300008950F931F93CF93DF93209161032F5F4F
:10094000322F37703093610320FF2BC020E831FD38
:100950002064347009F02062205FFC01EC012396D2
:1009600000E011E06485662329F070E0C8010E9470
:100970000E266F5F6187322F369F030E30E0311DE8
:100980001124311110C01682662311F06150618765
:100990003196EC17FD0731F7DF91CF911F910F9141
:1009A000089520E0D4CF31503683EECF4F925F923E
:1009B0006F927F928F929F92AF92CF92DF92EF923F
:1009C000FF920F931F93CF93DF933C01EB010E94A3
:1009D000C601F30127853089621B730B6A307105EC
:1009E000B0F3F894E881F9810BB100621BB11F7D6F
:1009F0001BB9C9848E814C2D481B842F4E839F8444
:100A00004A805B80FC84ED84DE84F394E394D39489
:100A10009F8138858A84AB844081D20120E0622F97
:100A2000722F7081442788947111780F08F47FEF3A
:100A300081958894F0FC470F47958894F1FC470F07
:100A400047958894F2FC470F47958894F3FC470F2D
:100A500047958894F4FC470F47958894F5FC470F19
:100A600047958894F6FC470F47958894F7FC470F05
:100A700047958894272FF110242F8C0D422F002C9E
:100A80000BB900C000C047FF1BB9718122278894B1
:100A900000C0002C1BB97111790F00C0002C0BB9DC
:100AA00000C000C046FF1BB908F47FEF9195889401
:100AB00000C0002C1BB9E0FC270F00C0002C0BB9B4
:100AC00000C000C045FF1BB927958894E1FC270FA3
:100AD00000C0002C1BB92795889400C0002C0BB9CE
:100AE00000C000C044FF1BB9E2FC270F2795889483
:100AF00000C0002C1BB9E3FC270F00C0002C0BB971
:100B000000C000C043FF1BB927958894E4FC270F61
:100B100000C0002C1BB92795889400C0002C0BB98D
:100B200000C000C042FF1BB9E5FC270F2795889441
:100B300000C0002C1BB9E6FC270F00C0002C0BB92D
:100B400000C000C041FF1BB927958894E7FC270F20
:100B500000C0002C1BB92795889400C0002C0BB94D
:100B600000C000C040FF1BB9472FE110422F980D75
:100B700000C0002C1BB900C000C0002C0BB900C085
:100B800000C047FF1BB972812227889400C0002C47
:100B90001BB97111730F00C0002C0BB900C000C04D
:100BA00046FF1BB908F47FEFE90DF11D00C0002CD2
:100BB0001BB9D0FC270F00C0002C0BB900C000C02F
:100BC00045FF1BB927958894D1FC270F00C0002C46
:100BD0001BB92795889400C0002C0BB900C000C039
:100BE00044FF1BB9D2FC270F2795889400C0002C26
:100BF0001BB9D3FC270F00C0002C0BB900C000C0EC
:100C000043FF1BB927958894D4FC270F00C0002C04
:100C10001BB92795889400C0002C0BB900C000C0F8
:100C200042FF1BB9D5FC270F2795889400C0002CE4
:100C30001BB9D6FC270F00C0002C0BB900C000C0A8
:100C400041FF1BB927958894D7FC270F00C0002CC3
:100C50001BB92795889400C0002C0BB900C000C0B8
:100C600040FF1BB9472FD110422F319500C0002CF7
:100C70001BB93A0D00C000C00BB900C000C047FF4F
:100C80001BB970812227889400C0002C1BB97111F8
:100C9000780F00C0002C0BB900C000C046FF1BB984
:100CA00008F47FEF8195889400C0002C1BB9F0FCFC
:100CB000270F00C0002C0BB900C000C045FF1BB9B6
:100CC00027958894F1FC270F00C0002C1BB92795AD
:100CD000889400C0002C0BB900C000C044FF1BB9B1
:100CE000F2FC270F2795889400C0002C1BB9F3FC59
:100CF000270F00C0002C0BB900C000C043FF1BB978
:100D000027958894F4FC270F00C0002C1BB9279569
:100D1000889400C0002C0BB900C000C042FF1BB972
:100D2000F5FC270F2795889400C0002C1BB9F6FC12
:100D3000270F00C0002C0BB900C000C041FF1BB939
:100D400027958894F7FC270F00C0002C1BB9279526
:100D5000889400C0002C0BB900C000C040FF1BB934
:100D6000472FF110422F8C0D00C0002C1BB911979A
:100D700009F086CE20EE31E0D2010E942226DC016D
:100D8000CB01F4E0B695A79597958795FA95D1F79D
:100D900030E020E0B901EAE94E9E040C611D5E9E40
:100DA000600D711D1124650D711D860F971FA11D0A
:100DB000B11D893EE3E09E07A105B10508F434C0EA
:100DC000885E9340A109B10942E0B695A795979531
:100DD00087954A95D1F747E0849F080E211D949F7F
:100DE000200D311D1124290F311D6091600370E029
:100DF000860F971F820F931F4091630350916403E6
:100E00006091650370916603292F3327420F531FAA
:100E1000611D711D409363035093640360936503E8
:100E2000709366038093600378940E94C601F30177
:100E3000708B6787DF91CF911F910F91FF90EF909B
:100E4000DF90CF90AF909F908F907F906F905F904A
:100E50004F900895559A08950F931F93CF93DF9362
:100E6000CDB7DEB762970FB6F894DEBF0FBECDBF29
:100E70008C01F901DC011C968C917A8369835C8377
:100E80004B835E834D8390819D8791819E87928164
:100E90009F878130F1F4CE0101960E94990483E08E
:100EA000888B1A8A198AD801ED91FC910484F58502
:100EB000E02DBE016F5F7F4FC801099562960FB6A6
:100EC000F894DEBF0FBECDBFDF91CF911F910F9180
:100ED00008951C861B861A86198618861F82DFCF06
:100EE0000F931F93CF93DF93CDB7DEB762970FB603
:100EF000F894DEBF0FBECDBF8C01F901DC011C965A
:100F00008C917A8369835C834B835E834D8390816C
:100F10009D8791819E8792819F878130E9F4CE01E0
:100F200001960E949904188A1A8A198AD801ED91AB
:100F3000FC910484F585E02DBE016F5F7F4FC801F1
:100F4000099562960FB6F894DEBF0FBECDBFDF9154
:100F5000CF911F910F9108951C861B861A861986C2
:100F600018861F82E0CF3F924F925F926F927F92DE
:100F70008F929F92AF92BF92CF92DF92EF92FF92A9
:100F80000F931F93CF93DF93CDB7DEB72B970FB699
:100F9000F894DEBF0FBECDBF0E941D024B015C0165
:100FA00084EB0E949A0082E390E00E942902092FBC
:100FB00010E02801712C612CAEECBFEFA30192016F
:100FC0000E94B425C12CD12C7601CA94A7019601A8
:100FD0000E9487252C833D834E835F839801A2E383
:100FE000B0E00E94DB25A70196010E948725288793
:100FF00039874A875B87B094A09490948094811C31
:10100000911CA11CB11CB694A794979487948982D3
:101010001A8233243A943B829801A9E1B0E00E94FD
:10102000DB25A70196010E948725B901660F771F6E
:10103000620F731F6E5C7B4FCE0101960E94C2034C
:1010400089821A823B828C819D81AE81BF81C2964A
:10105000A11DB11DBC01660F771F680F791F6E5C63
:101060007B4FCE0101960E94C20389821A823B8285
:1010700088859985AA85BB854996A11DB11DBC01AE
:10108000660F771F680F791F6E5C7B4FCE0101964C
:101090000E94C20389821A823B828C819D81AE812B
:1010A000BF818C599F4FAF4FBF4FBC01660F771F59
:1010B000680F791F6E5C7B4FCE0101960E94C203C0
:1010C00089821A823B8288859985AA85BB85855B42
:1010D0009F4FAF4FBF4FBC01660F771F680F791F3F
:1010E0006E5C7B4FCE0101960E94C20389821A82F8
:1010F0003B82AFECBFEFA30192010E94B425A70190
:1011000096010E948725DA01C9018B569F4FAF4F88
:10111000BF4FBC01660F771F680F791F6E5C7B4F56
:10112000CE0101960E94C2030E948B022B960FB63D
:10113000F894DEBF0FBECDBFDF91CF911F910F910D
:10114000FF90EF90DF90CF90BF90AF909F908F90E7
:101150007F906F905F904F903F9008954F925F9275
:101160006F927F928F929F92AF92BF92CF92DF92B7
:10117000EF92FF920F931F93CF93DF93CDB7DEB71C
:101180002B970FB6F894DEBF0FBECDBF0E941D0295
:101190004B015C0184EB0E949A0082E390E00E9484
:1011A0002902092F10E02801712C612CAEECBFEF51
:1011B000A30192010E94B425C12CD12C7601CA94BE
:1011C000A70196010E948725288739874A875B8770
:1011D000B094A09490948094811C911CA11CB11C8B
:1011E000D501C401B695A795979587958C839D8366
:1011F000AE83BF838983BB24BA94BA82BB82980131
:10120000A9E1B0E00E94DB25A70196010E94872595
:10121000B901660F771F620F731F6E5C7B4FCE01A3
:1012200001960E94C2039C819983BA82BB82888501
:101230009985AA85BB85C296A11DB11DBC01660F0B
:10124000771F680F791F6E5C7B4FCE0101960E945D
:10125000C203AC81A983BA82BB829801A2E3B0E049
:101260000E94DB25A70196010E948725DA01C901AA
:101270004996A11DB11DBC01660F771F680F791F2C
:101280006E5C7B4FCE0101960E94C203BC81B98384
:10129000BA82BB8288859985AA85BB858C599F4F68
:1012A000AF4FBF4FBC01660F771F680F791F6E5C91
:1012B0007B4FCE0101960E94C2038C818983BA8242
:1012C000BB829801AAE4B0E00E94DB25A701960149
:1012D0000E948725DA01C901855B9F4FAF4FBF4F41
:1012E000BC01660F771F680F791F6E5C7B4FCE01C4
:1012F00001960E94C2039C819983BA82BB82AFECA3
:10130000BFEFA30192010E94B425A70196010E949C
:101310008725DA01C9018B569F4FAF4FBF4FBC01E4
:10132000660F771F680F791F6E5C7B4FCE010196A9
:101330000E94C2030E948B022B960FB6F894DEBF68
:101340000FBECDBFDF91CF911F910F91FF90EF9016
:10135000DF90CF90BF90AF909F908F907F906F90D5
:101360005F904F900895CF92DF92EF92FF920F938C
:101370001F93CF93DF9300D01F92CDB7DEB70E94AB
:101380001D0290958095709561957F4F8F4F9F4F6F
:101390002AE030E040E050E00E94B925122FF12C05
:1013A000E12C0FEF82E3C82E84E0D82E19830A8344
:1013B0000B83B6016E197F09CE0101960E94C2030C
:1013C00019830A830B83B7016F507A4FCE010196C0
:1013D0000E94C2031B5F83E0E81AF1088FE1E81660
:1013E0008FEFF80619F70E948B020F900F900F9065
:1013F000DF91CF911F910F91FF90EF90DF90CF90F1
:1014000008958F929F92AF92BF92CF92DF92EF9208
:10141000FF92CF93DF938DEC0E949A0084E190E0DD
:101420000E942902C0E0D92F292F3C2FA5E9B0E066
:101430000E94DB25812C912C54018A94A5019401F2
:101440000E9487256901AD2FBC2F2BE63FEF4FEFA0
:101450005FEF0E94A625A50194010E948725BA018D
:10146000A9014B565F4F6F4F7F4FD601AA0FBB1F8D
:10147000AC0DBD1DAE5CBB4F3FEF3C9311963C9352
:10148000119712963C93FA01EE0FFF1FE40FF51F20
:10149000EE5CFB4F308331833283DF91CF91FF903D
:1014A000EF90DF90CF90BF90AF909F908F900C9473
:1014B0008B024F925F926F927F92BF92CF92DF9298
:1014C000EF92FF920F931F93CF93DF9300D01F9261
:1014D000CDB7DEB70E941D026B017C018DEC0E942E
:1014E0009A0084E190E00E94290200E0B92EF09475
:1014F000E094D094C094C11CD11CE11CF11CF69462
:10150000E794D794C794C9821FEF1A831B83292FAE
:10151000302FA5E9B0E00E94DB25412C512C32018F
:101520004A94A30192010E948725B901660F771F93
:10153000620F731F6E5C7B4FCE0101960E94C20347
:10154000C9821A831B83AB2DB02F2BE63FEF4FEFE1
:101550005FEF0E94A625A30192010E948725DA0170
:10156000C9018B569F4FAF4FBF4FBC01660F771F0E
:10157000680F791F6E5C7B4FCE0101960E94C203FB
:101580000E948B020F900F900F90DF91CF911F91CF
:101590000F91FF90EF90DF90CF90BF907F906F9072
:1015A0005F904F900895DF92EF92FF920F931F93F9
:1015B000CF93DF9300D01F92CDB7DEB70E941D02FC
:1015C00090958095709561957F4F8F4F9F4F2AE042
:1015D00030E040E050E00E94B925022F82E3E82E7F
:1015E00084E0F82E1EEE120FDD24DA940983DA82ED
:1015F000DB82B701CE0101960E94C2030B5F83E03C
:10160000E80EF11C0113F2CF0F900F900F90DF91B5
:10161000CF911F910F91FF90EF90DF900895CF939E
:10162000DF9300D000D000D0CDB7DEB748EC50E05B
:1016300062E370E08AE090E00E94450219821A821B
:101640008B83BE016C5F7F4FCE0101960E94C20367
:10165000AE014C5F5F4F66E970E082E394E00E9468
:1016600075040E948B0226960FB6F894DEBF0FBE5B
:10167000CDBFDF91CF910895CF92DF92EF92FF928D
:101680001F93CF93DF9300D000D000D0CDB7DEB74B
:101690000E941D026B017C014FEF50E062E370E09D
:1016A0008AE090E00E944502182F66277727CB0139
:1016B0006C197D098E099F0922E330E040E050E07B
:1016C0000E94B92529838FEF8A831B83BE016C5F3B
:1016D0007F4FCE0101960E94C203AE014C5F5F4F67
:1016E00066E970E082E394E00E9475040E948B0238
:1016F00026960FB6F894DEBF0FBECDBFDF91CF9117
:101700001F91FF90EF90DF90CF900895CF92DF92DE
:10171000EF92FF926C010E941D020D2C000CEE084E
:10172000FF08C60ED71EE81EF91E0E941D026C158A
:101730007D058E059F05C8F3FF90EF90DF90CF9059
:101740000895CF92DF92EF92FF921F93CF93DF9392
:1017500000D000D000D0CDB7DEB70E941D026B01D3
:101760007C011FEF19831A821B830E9482009C0157
:10177000220F331F820F931FBC016E5C7B4FCE0183
:1017800001960E94C20319831A821B830E94820061
:101790009C01220F331F820F931FBC016E5C7B4F95
:1017A000CE0101960E94C2030E948B0284E090E069
:1017B0000E94860B66277727CB016C197D098E095D
:1017C0009F092AE030E040E050E00E94B9252983DB
:1017D0001A8388EC8B83BE016C5F7F4FCE0101962C
:1017E0000E94C203AE014C5F5F4F66E970E082E386
:1017F00094E00E9475040E948B0226960FB6F8941E
:10180000DEBF0FBECDBFDF91CF911F91FF90EF9054
:10181000DF90CF9008951F93CF93DF9300D000D037
:1018200000D0CDB7DEB71FEF19831A821B830E9449
:101830008200BC01660F771F680F791F6E5C7B4FBB
:10184000CE0101960E94C20319831A821B830E9453
:101850008200BC01660F771F680F791F6E5C7B4F9B
:10186000CE0101960E94C20319831A821B830E9433
:101870008200BC01660F771F680F791F6E5C7B4F7B
:10188000CE0101960E94C20319831A821B830E9413
:101890008200BC01660F771F680F791F6E5C7B4F5B
:1018A000CE0101960E94C20319831A821B830E94F3
:1018B0008200BC01660F771F680F791F6E5C7B4F3B
:1018C000CE0101960E94C20319831A821B830E94D3
:1018D0008200BC01660F771F680F791F6E5C7B4F1B
:1018E000CE0101960E94C20319831A821B830E94B3
:1018F0008200BC01660F771F680F791F6E5C7B4FFB
:10190000CE0101960E94C20319831A821B830E9492
:101910008200BC01660F771F680F791F6E5C7B4FDA
:10192000CE0101960E94C20319831A821B830E9472
:101930008200BC01660F771F680F791F6E5C7B4FBA
:10194000CE0101960E94C20319831A821B830E9452
:101950008200BC01660F771F680F791F6E5C7B4F9A
:10196000CE0101960E94C2030E948B0284E090E0A7
:101970000E94860B19821A821B82BE016C5F7F4F08
:10198000CE0101960E94C203AE014C5F5F4F66E933
:1019900070E082E394E00E9475040E948B0285E06F
:1019A00090E00E94860B26960FB6F894DEBF0FBE1D
:1019B000CDBFDF91CF911F910895FF920F931F9399
:1019C000CF93DF9300D000D000D0CDB7DEB7F82E94
:1019D000062F142F89836A834B83BE016C5F7F4F70
:1019E000CE0101960E94C203AE014C5F5F4F66E9D3
:1019F00070E082E394E00E94750486E990E00E9422
:101A0000860B0E948B0219821A821B82BE016C5FB8
:101A10007F4FCE0101960E94C203AE014C5F5F4F23
:101A200066E970E082E394E00E94750486E990E044
:101A30000E94860B0E948B02F9820A831B83BE01DF
:101A40006C5F7F4FCE0101960E94C203AE014C5FD6
:101A50005F4F66E970E082E394E00E94750486E9D6
:101A600090E00E94860B0E948B0219821A821B82D0
:101A7000BE016C5F7F4FCE0101960E94C203AE0192
:101A80004C5F5F4F66E970E082E394E00E9475046A
:101A900086E990E00E94860B0E948B02F9820A83FD
:101AA0001B83BE016C5F7F4FCE0101960E94C20373
:101AB000AE014C5F5F4F66E970E082E394E00E9404
:101AC000750486E990E00E94860B0E948B021982C1
:101AD0001A821B82BE016C5F7F4FCE0101960E946D
:101AE000C203AE014C5F5F4F66E970E082E394E0B1
:101AF0000E94750486E990E00E94860B0E948B028A
:101B000026960FB6F894DEBF0FBECDBFDF91CF9102
:101B10001F910F91FF9008958091210490912204CC
:101B2000A0912304B0912404803D27E09207A105F1
:101B3000B10541F44FEF50E06FEF70E08FEF90E0B0
:101B40000C94DD0C883B2BE09207A105B10539F41C
:101B50004FEF50E06FEF70E080EA90E0F1CF803A15
:101B60009F40A105B10539F44FEF50E06FEF70E0F1
:101B700080E490E0E5CF0895CF93DF9300D000D0CC
:101B800000D0CDB7DEB78FEF89831A828B83BE0179
:101B90006C5F7F4FCE0101960E94C203AE014C5F85
:101BA0005F4F66E970E082E394E00E9475048AE08A
:101BB00090E00E94860B0E948B0219821A821B827F
:101BC000BE016C5F7F4FCE0101960E94C203AE0141
:101BD0004C5F5F4F66E970E082E394E00E94750419
:101BE0008EE190E00E94860B0E948B0226960FB633
:101BF000F894DEBF0FBECDBFDF91CF910895CF9394
:101C0000DF9300D000D000D0CDB7DEB78FEF89834F
:101C10008A838B83BE016C5F7F4FCE0101960E9449
:101C2000C203AE014C5F5F4F66E970E082E394E06F
:101C30000E9475048AE090E00E94860B0E948B024D
:101C400019821A821B82BE016C5F7F4FCE01019602
:101C50000E94C203AE014C5F5F4F66E970E082E311
:101C600094E00E9475048EE190E00E94860B0E9431
:101C70008B0226960FB6F894DEBF0FBECDBFDF9164
:101C8000CF910895DF92EF92FF920F931F93CF931E
:101C9000DF9300D000D000D0CDB7DEB70E941D0288
:101CA00090958095709561957F4F8F4F9F4F2AE05B
:101CB00030E040E050E00E94B925022F82E3E82E98
:101CC00084E0F82E1EEE120FDD24DA940983DA8206
:101CD000DB82B701CE0101960E94C2030B5F83E055
:101CE000E80EF11C0113F2CF8AE090E00E94860B0F
:101CF0000E948B0219821A821B82BE016C5F7F4F89
:101D0000CE0101960E94C203AE014C5F5F4F66E9AF
:101D100070E082E394E00E9475048EE190E00E94FE
:101D2000860B0E948B0226960FB6F894DEBF0FBE7C
:101D3000CDBFDF91CF911F910F91FF90EF90DF907A
:101D40000895AF92BF92DF92EF92FF920F931F938D
:101D5000CF93DF9300D01F92CDB7DEB70E941D0254
:101D60009B01AC0160E070ED80E290E00E94EA250A
:101D7000892F96FD8095E82FEF738F7096FD8F5F0A
:101D8000E695E695E695E670F0E0E35FFE4F11819B
:101D9000189F102D812D112412951F708295807F20
:101DA000182B8081180F97FD119510582EED129F5A
:101DB000010E10E0111D11240E941D0290958095C6
:101DC000709561957F4F8F4F9F4F2AE030E040E044
:101DD00050E00E94B925022F105C121BF12CE12C5F
:101DE000DD24DA9482E3A82E84E0B82E09831A83D6
:101DF000DB82B5016E197F09CE0101960E94C203F4
:101E000009831A83DB82B7016F507A4FCE010196A6
:101E10000E94C2030E5F165F83E0E81AF1088FE1AB
:101E2000E8168FEFF80611F70F900F900F90DF91E3
:101E3000CF911F910F91FF90EF90DF90BF90AF90E7
:101E40000895CF93DF9300D000D000D0CDB7DEB798
:101E50000E941D0290958095709561957F4F8F4FE0
:101E60009F4F2AE030E040E050E00E94B9252983EE
:101E70008FEF8A838B83BE016C5F7F4FCE0101960B
:101E80000E94C203AE014C5F5F4F66E970E082E3DF
:101E900094E00E9475040E948B0226960FB6F89477
:101EA000DEBF0FBECDBFDF91CF91089590E080E0FF
:101EB0000895FC01858596850895CF93DF9300D022
:101EC00000D000D0CDB7DEB7AB011C821D821E82D0
:101ED000DC01ED91FC910190F081E02D19821A82D4
:101EE0001B829E012F5F3F4FBE016C5F7F4F0995A4
:101EF00026960FB6F894DEBF0FBECDBFDF91CF910F
:101F00000895FC01DB018C919081981708F480837F
:101F100011968C9111979181981708F481831296EC
:101F20008C919281981708F48283CF010895CF9302
:101F3000DF9300D000D000D0CDB7DEB781EE0E9495
:101F40009A008FEF89831A828B83BE016C5F7F4F6B
:101F5000CE0101960E94C20345E950E070E060E0C6
:101F60008AE090E00E9445029C01220F331F820FFD
:101F7000931FBE016C5F7F4F8E5C9B4F0E94810F51
:101F800026960FB6F894DEBF0FBECDBFDF91CF917E
:101F90000895CF93DF9300D000D000D0CDB7DEB747
:101FA00081EE0E949A000E941D0290958095709586
:101FB00061957F4F8F4F9F4F25E030E040E050E02C
:101FC0000E94B92529838FEF8A838B83BE016C5FC2
:101FD0007F4FCE0101960E94C20345E950E070E0B8
:101FE00060E08AE090E00E9445029C01220F331FCE
:101FF000820F931FBE016C5F7F4F8E5C9B4F0E94D0
:10200000810F26960FB6F894DEBF0FBECDBFDF91CD
:10201000CF9108958F929F92AF92BF92EF92FF92CD
:102020000F931F93CF93DF9300D000D000D0CDB794
:10203000DEB78BEE0E949A0006E010E0EE24EA94F0
:10204000812C912C54018A94C8010E942902F92EF6
:10205000E9821A82EB82BE016C5F7F4FCE0101964E
:102060000E94C2032F2D30E0A5E9B0E00E94DB25DD
:10207000A50194010E948725C901880F991F820F2D
:10208000931FBE016C5F7F4F8E5C9B4F0E94810F40
:102090000F5F1F4F0C301105B9F626960FB6F89456
:1020A000DEBF0FBECDBFDF91CF911F910F91FF908B
:1020B000EF90BF90AF909F908F900895FF920F93F5
:1020C0001F93CF93DF9300D000D000D0CDB7DEB701
:1020D0008BEE0E949A000E941D0206E010E0FF2491
:1020E000FA94F9821A82FB82BE016C5F7F4FCE01A7
:1020F00001960E94C20345E950E070E060E0C8012B
:102100000E9445029C01220F331F820F931FBE01C4
:102110006C5F7F4F8E5C9B4F0E94810F0F5F1F4F44
:102120000C301105F1F626960FB6F894DEBF0FBEFF
:10213000CDBFDF91CF911F910F91FF9008958F92A6
:102140009F92AF92BF92DF92EF92FF920F931F93F5
:10215000CF93DF9300D000D000D0CDB7DEB78BEEA9
:102160000E949A000E941D0290958095709561953D
:102170007F4F8F4F9F4F2AE030E040E050E00E94B9
:10218000B925122F56E0E52EF12CDD24DA94812CAE
:10219000912C54018A94C7010E942902092F1983A6
:1021A000DA82DB82BE016C5F7F4FCE0101960E9416
:1021B000C203202F30E0A5E9B0E00E94DB25A50195
:1021C00094010E948725C901880F991F820F931FD0
:1021D000BE016C5F7F4F8E5C9B4F0E94810F8FEF23
:1021E000E81AF80A175E8CE0E816F104A1F62696C4
:1021F0000FB6F894DEBF0FBECDBFDF91CF911F9118
:102200000F91FF90EF90DF90BF90AF909F908F90D5
:102210000895EF92FF920F931F93CF93DF9300D017
:1022200000D000D0CDB7DEB78BEE0E949A000E949E
:102230001D0290958095709561957F4F8F4F9F4FB0
:102240002AE030E040E050E00E94B925122F56E02D
:10225000E52EF12C0FEF19830A830B83BE016C5F0F
:102260007F4FCE0101960E94C20345E950E070E025
:1022700060E0C7010E9445029C01220F331F820FBC
:10228000931FBE016C5F7F4F8E5C9B4F0E94810F3E
:10229000175E8FEFE81AF80A8CE0E816F104D9F619
:1022A00026960FB6F894DEBF0FBECDBFDF91CF915B
:1022B0001F910F91FF90EF9008951F93CF93DF939D
:1022C000EC010E941D0228EE33E040E050E00E9445
:1022D000B92588819981281B390B8A819B8111E05E
:1022E0002817390708F410E02817390718F0CE012D
:1022F0000E948904812FDF91CF911F910895FC01E5
:1023000001900020E9F73197AF01481B590BBC0140
:1023100084EF95E00C94B9008F929F92AF92BF9298
:102320000F931F93CF93DF93CDB7DEB7A1970FB66F
:10233000F894DEBF0FBECDBF19A2423008F44AE0C8
:102340008E010F5D1F4F842E912CB12CA12CA50165
:1023500094010E94B925E62FB901CA01EA30F4F4CC
:10236000E05DD801EE938D01232B242B252B79F7EB
:1023700090E080E0109719F0CD010E947F11A196A6
:102380000FB6F894DEBF0FBECDBFDF91CF911F9186
:102390000F91BF90AF909F908F900895E95CE1CF2F
:1023A000CF93DF930E947F11EC018EEE91E00E94AB
:1023B0007F118C0F9D1FDF91CF910895CF93DF93F5
:1023C000682F70E090E080E04AE00E948C11EC0100
:1023D0008EEE91E00E947F118C0F9D1FDF91CF91B7
:1023E0000895CF92DF92EF92FF92CF93DF936C012B
:1023F000990FEE08FF08F7FE1FC06DE284EF95E02D
:102400000E945901EC0166277727CB016C197D09E1
:102410008E099F094AE00E948C11C80FD91F8EEEC9
:1024200091E00E947F118C0F9D1FDF91CF91FF9053
:10243000EF90DF90CF9008954AE0C701B6010E9467
:102440008C11EC01ECCF0E942F26CF92DF92EF92FD
:10245000FF926B017C01C114D104E104F10441F04D
:102460000E942125A70196010E9487256B017C010E
:10247000C701B601FF90EF90DF90CF9008958F9243
:102480009F92AF92BF92CF92DF92EF92FF92CF9343
:10249000DF936AE070E080E090E00E9425128DEC0E
:1024A0000E949A0084E190E00E942902C0E0D92FA6
:1024B000292F3C2FA5E9B0E00E94DB25812C912C2F
:1024C00054018A94A50194010E9487256901AD2FCA
:1024D000BC2F2BE63FEF4FEF5FEF0E94A625A50133
:1024E00094010E948725BA01A9014B565F4F6F4F97
:1024F0007F4FD601AA0FBB1FAC0DBD1DAE5CBB4FFD
:102500003FEF3C9311963C93119712963C93FA013E
:10251000EE0FFF1FE40FF51FEE5CFB4F308331839E
:102520003283DF91CF91FF90EF90DF90CF90BF90FB
:10253000AF909F908F900C948B028F929F92AF924E
:10254000BF92CF92DF92EF92FF920F931F93CF93A0
:10255000DF9300D000D000D0CDB7DEB70E941D02BF
:102560004B015C016FEF70E080E090E00E9425126B
:10257000062F60E870E080E090E00E9425126B0179
:102580007C0166277727CB01681979098A099B099D
:102590002AE030E040E050E00E94B925122F298364
:1025A0008FE7C80ED11CE11CF11CCA820B830E946C
:1025B0008200BC01660F771F680F791F6E5C7B4F2E
:1025C000CE0101960E94C2036FEF70E080E090E0C0
:1025D0000E942512062F60E870E080E090E00E94E3
:1025E0002512198361587F4F8F4F9F4F6A830B834A
:1025F0000E948200BC01660F771F680F791F6E5C16
:102600007B4FCE0101960E94C2036FEF70E080E025
:1026100090E00E942512062F60E870E080E090E0D4
:102620000E942512198361587F4F8F4F9F4F6A83F5
:102630000B830E948200BC01660F771F680F791F11
:102640006E5C7B4FCE0101960E94C2036FEF70E07B
:1026500080E090E00E942512062F60E870E080E0A4
:1026600090E00E942512198361587F4F8F4F9F4F32
:102670006A830B830E948200BC01660F771F680F7C
:10268000791F6E5C7B4FCE0101960E94C2036FEFF3
:1026900070E080E090E00E942512062F60E870E074
:1026A00080E090E00E942512198361587F4F8F4F80
:1026B0009F4F6A830B830E948200BC01660F771FC5
:1026C000680F791F6E5C7B4FCE0101960E94C2039A
:1026D0006FEF70E080E090E00E942512062F60E826
:1026E00070E080E090E00E942512198361587F4FCE
:1026F0008F4F9F4F6A830B830E948200BC01660F3D
:10270000771F680F791F6E5C7B4FCE0101960E9488
:10271000C2036FEF70E080E090E00E942512062F68
:1027200060E870E080E090E00E9425121983615813
:102730007F4F8F4F9F4F6A830B830E948200BC01A3
:10274000660F771F680F791F6E5C7B4FCE01019675
:102750000E94C2036FEF70E080E090E00E942512BB
:10276000062F60E870E080E090E00E942512198357
:1027700061587F4F8F4F9F4F6A830B830E94820067
:10278000BC01660F771F680F791F6E5C7B4FCE010F
:1027900001960E94C2036FEF70E080E090E00E941B
:1027A0002512062F60E870E080E090E00E9425127C
:1027B000198361587F4F8F4F9F4F6A830B830E940D
:1027C0008200BC01660F771F680F791F6E5C7B4F1C
:1027D000CE0101960E94C2036FEF70E080E090E0AE
:1027E0000E942512062F60E870E080E090E00E94D1
:1027F0002512198361587F4F8F4F9F4F6A830B8338
:102800000E948200BC01660F771F680F791F6E5C03
:102810007B4FCE0101960E94C2030E948B0284E18D
:1028200090E00E94860B19821A821B82BE016C5FA7
:102830007F4FCE0101960E94C203AE014C5F5F4FF5
:1028400066E970E082E394E00E9475040E948B02C6
:1028500026960FB6F894DEBF0FBECDBFDF91CF91A5
:102860001F910F91FF90EF90DF90CF90BF90AF90AE
:102870009F908F9008950F931F93CF93DF9300D075
:1028800000D000D0CDB7DEB76FEF70E080E090E011
:102890000E942512062F6FEF70E080E090E00E940A
:1028A000251269831FEF1A830B830E948200BC01EB
:1028B000660F771F680F791F6E5C7B4FCE01019604
:1028C0000E94C2036FEF70E080E090E00E9425124A
:1028D000062F6FEF70E080E090E00E942512698380
:1028E0001A830B830E948200BC01660F771F680F5A
:1028F000791F6E5C7B4FCE0101960E94C2036FEF81
:1029000070E080E090E00E942512062F6FEF70E0EB
:1029100080E090E00E94251269831A830B830E9455
:102920008200BC01660F771F680F791F6E5C7B4FBA
:10293000CE0101960E94C2036FEF70E080E090E04C
:102940000E942512062F6FEF70E080E090E00E9459
:10295000251269831A830B830E948200BC01660FD3
:10296000771F680F791F6E5C7B4FCE0101960E9426
:10297000C2036FEF70E080E090E00E942512062F06
:102980006FEF70E080E090E00E94251269831A8367
:102990000B830E948200BC01660F771F680F791FAE
:1029A0006E5C7B4FCE0101960E94C2036FEF70E018
:1029B00080E090E00E942512062F6FEF70E080E02B
:1029C00090E00E94251269831A830B830E94820083
:1029D000BC01660F771F680F791F6E5C7B4FCE01BD
:1029E00001960E94C2036FEF70E080E090E00E94C9
:1029F0002512062F6FEF70E080E090E00E94251214
:102A000069831A830B830E948200BC01660F771FC3
:102A1000680F791F6E5C7B4FCE0101960E94C20346
:102A20006FEF70E080E090E00E942512062F6FEFBC
:102A300070E080E090E00E94251269831A830B8386
:102A40000E948200BC01660F771F680F791F6E5CC1
:102A50007B4FCE0101960E94C2036FEF70E080E0D1
:102A600090E00E942512062F6FEF70E080E090E06A
:102A70000E94251269831A830B830E948200BC0185
:102A8000660F771F680F791F6E5C7B4FCE01019632
:102A90000E94C2036FEF70E080E090E00E94251278
:102AA000062F6FEF70E080E090E00E9425126983AE
:102AB0001A830B830E948200BC01660F771F680F88
:102AC000791F6E5C7B4FCE0101960E94C2030E946B
:102AD0008B0284E190E00E94860B19821A821B828D
:102AE000BE016C5F7F4FCE0101960E94C203AE0112
:102AF0004C5F5F4F66E970E082E394E00E947504EA
:102B00000E948B0226960FB6F894DEBF0FBECDBF93
:102B1000DF91CF911F910F910895BF92CF92DF92D5
:102B2000EF92FF920F931F93CF93DF9300D000D0CB
:102B300000D0CDB7DEB70E941D026B017C016FEFA4
:102B400070E080E090E00E942512B62E662777277D
:102B5000CB016C197D098E099F092AE030E040E025
:102B600050E00E94B925022F29831FEF1A83BB82F0
:102B70000E948200BC01660F771F680F791F6E5C90
:102B80007B4FCE0101960E94C2036FEF70E080E0A0
:102B900090E00E94251209831A836B830E948200B1
:102BA000BC01660F771F680F791F6E5C7B4FCE01EB
:102BB00001960E94C2036FEF70E080E090E00E94F7
:102BC000251209831A836B830E948200BC01660F61
:102BD000771F680F791F6E5C7B4FCE0101960E94B4
:102BE000C2036FEF70E080E090E00E94251209833D
:102BF0001A836B830E948200BC01660F771F680FE7
:102C0000791F6E5C7B4FCE0101960E94C2036FEF6D
:102C100070E080E090E00E94251209831A836B83A4
:102C20000E948200BC01660F771F680F791F6E5CDF
:102C30007B4FCE0101960E94C2036FEF70E080E0EF
:102C400090E00E94251209831A836B830E94820000
:102C5000BC01660F771F680F791F6E5C7B4FCE013A
:102C600001960E94C2036FEF70E080E090E00E9446
:102C7000251209831A836B830E948200BC01660FB0
:102C8000771F680F791F6E5C7B4FCE0101960E9403
:102C9000C2036FEF70E080E090E00E94251209838C
:102CA0001A836B830E948200BC01660F771F680F36
:102CB000791F6E5C7B4FCE0101960E94C2036FEFBD
:102CC00070E080E090E00E94251209831A836B83F4
:102CD0000E948200BC01660F771F680F791F6E5C2F
:102CE0007B4FCE0101960E94C2036FEF70E080E03F
:102CF00090E00E94251209831A836B830E94820050
:102D0000BC01660F771F680F791F6E5C7B4FCE0189
:102D100001960E94C2030E948B0284E190E00E940F
:102D2000860B19821A821B82BE016C5F7F4FCE0117
:102D300001960E94C203AE014C5F5F4F66E970E0EE
:102D400082E394E00E9475040E948B0226960FB6DF
:102D5000F894DEBF0FBECDBFDF91CF911F910F91D1
:102D6000FF90EF90DF90CF90BF900895CF92DF92C9
:102D7000EF92FF920F931F93CF93DF9300D000D079
:102D800000D0CDB7DEB70E9421256B017C010E94E7
:102D900021252FEF30E040E050E00E948725698335
:102DA0008FEF8A838B83BE016C5F7F4FCE010196CC
:102DB0000E94C203C701B60125E030E040E050E0C8
:102DC0000E9487252EE1269FA001279F500D1124E8
:102DD0008A01000F111F040F151F0E5C1B4FAE015F
:102DE0004C5F5F4F6EE170E0C8010E94750490E097
:102DF00080E00E94860B0E948B0219821A821B823D
:102E0000BE016C5F7F4FCE0101960E94C203AE01EE
:102E10004C5F5F4F6EE170E0C8010E94750488E26C
:102E200090E00E94860B0E948B0226960FB6F894C3
:102E3000DEBF0FBECDBFDF91CF911F910F91FF90ED
:102E4000EF90DF90CF900895CF92DF92EF92FF92B4
:102E50000F931F93CF93DF9300D000D000D0CDB756
:102E6000DEB70E941D0290958095709561957F4F09
:102E70008F4F9F4F2AE030E040E050E00E94B9259C
:102E8000022FF12CE12C1FEF92E3C92E94E0D92EF2
:102E900009831A831B83B6016E197F09CE0101963F
:102EA0000E94C20309831A831B83B7016F507A4FB4
:102EB000CE0101960E94C2030B5F83E0E81AF1087D
:102EC0008FE1E8168FEFF80619F70E948B020E9437
:102ED00021256B017C0119831A821B83BE016C5F63
:102EE0007F4FCE0101960E94C203C701B60125E0C3
:102EF00030E040E050E00E9487252EE1269FA001AF
:102F0000279F500D11248A01000F111F040F151F58
:102F10000E5C1B4FAE014C5F5F4F6EE170E0C8016D
:102F20000E94750490E080E00E94860B0E948B0254
:102F300019821A821B82BE016C5F7F4FCE010196FF
:102F40000E94C203AE014C5F5F4F6EE170E0C801AA
:102F50000E94750488E290E00E94860B0E948B021A
:102F600026960FB6F894DEBF0FBECDBFDF91CF918E
:102F70001F910F91FF90EF90DF90CF900895CF9227
:102F8000DF92EF92FF920F931F93CF93DF9300D0C6
:102F900000D000D0CDB7DEB70E941D02909580957D
:102FA000709561957F4F8F4F9F4F2AE030E040E052
:102FB00050E00E94B925F22E92E3C92E94E0D92E5A
:102FC0000EEE020F1FEFF9821A831B83B601CE01AA
:102FD00001960E94C20385E0F80E83E0C80ED11C62
:102FE000F012F1CF0E948B020E9421256B017C011F
:102FF00019831A821B83BE016C5F7F4FCE0101963D
:103000000E94C203C701B60125E030E040E050E075
:103010000E9487252EE1269FA001279F500D112495
:103020008A01000F111F040F151F0E5C1B4FAE010C
:103030004C5F5F4F6EE170E0C8010E94750490E044
:1030400080E00E94860B0E948B0219821A821B82EA
:10305000BE016C5F7F4FCE0101960E94C203AE019C
:103060004C5F5F4F6EE170E0C8010E94750488E21A
:1030700090E00E94860B0E948B0226960FB6F89471
:10308000DEBF0FBECDBFDF91CF911F910F91FF909B
:10309000EF90DF90CF900895CF92DF92EF92FF9262
:1030A0000F931F93CF93DF9300D000D000D0CDB704
:1030B000DEB70E941D0290958095709561957F4FB7
:1030C0008F4F9F4F2AE030E040E050E00E94B9254A
:1030D00029831FEF1A8386E98B83BE016C5F7F4FC4
:1030E000CE0101960E94C203AE014C5F5F4F66E9BC
:1030F00070E082E394E00E9475040E948B020E94BB
:1031000021256B017C0119831A821B83BE016C5F30
:103110007F4FCE0101960E94C203C701B60125E090
:1031200030E040E050E00E9487252EE1269FA0017C
:10313000279F500D11248A01000F111F040F151F26
:103140000E5C1B4FAE014C5F5F4F6EE170E0C8013B
:103150000E94750490E080E00E94860B0E948B0222
:1031600019821A821B82BE016C5F7F4FCE010196CD
:103170000E94C203AE014C5F5F4F6EE170E0C80178
:103180000E94750488E290E00E94860B0E948B02E8
:1031900026960FB6F894DEBF0FBECDBFDF91CF915C
:1031A0001F910F91FF90EF90DF90CF900895CF92F5
:1031B000DF92EF92FF920F931F93CF93DF9300D094
:1031C00000D000D0CDB7DEB70E9421256B017C0175
:1031D0000E941D0290958095709561957F4F8F4F4D
:1031E0009F4F2AE030E040E050E00E94B92529835B
:1031F0008FEF8A838B83BE016C5F7F4FCE01019678
:103200000E94C203C701B60125E030E040E050E073
:103210000E9487252EE1269FA001279F500D112493
:103220008A01000F111F040F151F0E5C1B4FAE010A
:103230004C5F5F4F6EE170E0C8010E94750490E042
:1032400080E00E94860B0E948B0219821A821B82E8
:10325000BE016C5F7F4FCE0101960E94C203AE019A
:103260004C5F5F4F6EE170E0C8010E94750488E218
:1032700090E00E94860B0E948B0226960FB6F8946F
:10328000DEBF0FBECDBFDF91CF911F910F91FF9099
:10329000EF90DF90CF900895CF92DF92EF92FF9260
:1032A0000F931F93CF93DF9300D000D000D0CDB702
:1032B000DEB70E9421256B017C018FEF89831A8282
:1032C0008B83BE016C5F7F4FCE0101960E94C203CB
:1032D000C701B60125E030E040E050E00E948725BC
:1032E0002EE1269FA001279F500D11248A01000F77
:1032F000111F040F151F0E5C1B4FAE014C5F5F4F7B
:103300006EE170E0C8010E94750490E080E00E94C8
:10331000860B0E948B0219821A821B82BE016C5F8F
:103320007F4FCE0101960E94C203AE014C5F5F4FFA
:103330006EE170E0C8010E94750488E290E00E948E
:10334000860B0E948B0226960FB6F894DEBF0FBE46
:10335000CDBFDF91CF911F910F91FF90EF90DF9044
:10336000CF9008950C94792580911A04882389F0D0
:1033700068E170E080E090E00E942512862F809343
:103380001C040E94DE1160911C0483E090E00C9408
:10339000B21980911C0490E0019668E170E00E94EF
:1033A000FA25EDCF80911A04882389F06EE070E051
:1033B00080E090E00E942512862F80931D040E94D9
:1033C000DE1160911D0482E090E00C94B2198091AE
:1033D0001D0490E001966EE070E00E94FA25EDCFAA
:1033E00080911A04882389F061E170E080E090E028
:1033F0000E942512862F80931E040E94DE11609188
:103400001E0481E090E00C94B21980911E0490E0BB
:10341000019661E170E00E94FA25EDCF1F920F92B4
:103420000FB60F9211242F933F934F935F936F9397
:103430007F938F939F93AF93BF93EF93FF9384EF0B
:1034400095E00E943701FF91EF91BF91AF919F915D
:103450008F917F916F915F914F913F912F910F903D
:103460000FBE0F901F9018951F920F920FB60F92DC
:1034700011242F938F939F93EF93FF93E091040672
:10348000F09105068081E0910A06F0910B0682FD1D
:103490001BC0908180910D068F5F8F7320910E0667
:1034A000821741F0E0910D06F0E0EC50FA4F958F55
:1034B00080930D06FF91EF919F918F912F910F9027
:1034C0000FBE0F901F9018958081F4CF1F920F921E
:1034D0000FB60F9211242F933F938F939F93AF9327
:1034E000BF938091630390916403A0916503B091B1
:1034F00066033091620323E0230F2D3758F50196C0
:10350000A11DB11D20936203809363039093640314
:10351000A0936503B093660380916703909168035D
:10352000A0916903B0916A030196A11DB11D80931A
:10353000670390936803A0936903B0936A03BF91F4
:10354000AF919F918F913F912F910F900FBE0F9050
:103550001F90189526E8230F0296A11DB11DD2CF0A
:10356000E4EFF5E01382128288EE93E0A0E0B0E091
:1035700084839583A683B78380EE91E091838083D3
:1035800085EC90E09587848784EC90E09787868728
:1035900080EC90E0918B808B81EC90E0938B828B20
:1035A00082EC90E0958B848B86EC90E0978B868BF9
:1035B000118E128E138E148EE1E9F6E08FEF808368
:1035C00012821182148613868FEF9FEFDC018783AE
:1035D0009087A187B2878FE492E0092E000CAA0B96
:1035E000BB0B8093A2069093A306A093A406B0936E
:1035F000A50680EF91E0092E000CAA0BBB0B80936F
:103600009E0690939F06A093A006B093A1060895EE
:10361000CF93DF93CDB7DEB76A970FB6F894DEBFCE
:103620000FBECDBF789484B5826084BD84B58160BF
:1036300084BD85B5826085BD85B5816085BD80917D
:103640006E00816080936E001092810080918100F5
:1036500082608093810080918100816080938100ED
:10366000809180008160809380008091B1008460AF
:103670008093B1008091B00081608093B000809110
:103680007A00846080937A0080917A0082608093CF
:103690007A0080917A00816080937A0080917A002C
:1036A000806880937A001092C10068EB7BE080E034
:1036B00090E00E94EB01E0910406F091050682E0A3
:1036C0008083E0910006F09101061082E0910206ED
:1036D000F09103068FEC808310920C06E0910806AF
:1036E000F091090686E08083E0910606F0910706D6
:1036F000808180618083E0910606F09107068081D9
:1037000088608083E0910606F091070680818068DA
:103710008083E0910606F091070680818F7D80838B
:1037200080917E03811145C01092700310926F0347
:103730008FEF80937303809374038093750380935A
:103740007603809377038093780381E080937903F5
:1037500010927B0310927A031092720310927103FD
:1037600080912C0490912D04892B31F48DE693E007
:1037700090932D0480932C04E0916B03F0916C03E3
:10378000309721F08DE693E0958384838DE693E076
:1037900090936C0380936B0310927D0310927C03D3
:1037A00089E291E090936E0380936D0381E08093B2
:1037B0007E03559A82E394E09093700380936F03A5
:1037C00086E990E090937B0380937A03809194063E
:1037D00090919506A0919606B0919706843C29E0B9
:1037E0009207A105B10520F484EC99E0A0E0B0E0D7
:1037F0008093940690939506A0939606B0939706AF
:103800008FEF8093730390EB9093740390EF9093FA
:103810007503809391068FE492E09C01990F440B0D
:10382000550B2B8B3C8B4D8B5E8B8CE292E09C017D
:10383000990F440B550B2F87388B498B5A8B8BE490
:1038400092E09C01990F440B550B2F8338874987D1
:103850005A8785E592E09C01990F440B550B2B8705
:103860003C874D875E8787E092E04C01990FAA085C
:10387000BB0884E192E09C01990F440B550B2F8B00
:10388000388F498F5A8FECE9F0E08491E8E8F0E056
:103890009491E4E7F0E0E491E1116FC1E090250438
:1038A000D12CC12CF12C8091A2069091A3068F54AB
:1038B0009240D9F5E0911E04F0E0EE0FFF1FE95CA5
:1038C000FE4F0190F081E02D09950E948B020E942D
:1038D000A20380910401882341F180911904882377
:1038E00009F4C6C18091AE03811118C064E070E094
:1038F00080E090E00E9425122B013C018AEA93E0CF
:103900000E9489044FEF441A540A640A740A5092C0
:10391000AD034092AC0381E08093AE038AEA93E06A
:103920000E945D1181110E94F0198091A206909170
:10393000A3068B5F9140D9F5E0911D04F0E0EE0FF6
:10394000FF1FE75AFE4F0190F081E02D09950E947C
:103950008B020E94A20380910401882341F180918F
:103960001904882309F4D2C18091DE03811118C0A3
:1039700064E070E080E090E00E9425122B013C01A1
:103980008AED93E00E9489048FEF481A580A680A6A
:10399000780A5092DD034092DC0381E08093DE03DD
:1039A0008AED93E00E945D1181110E94D2198091ED
:1039B000A2069091A306A2E087309A0739F0B2E000
:1039C0008E309B0719F084519240D9F48091050103
:1039D0009091060120911B042C839D838E83BE0150
:1039E0006F5F7F4FCE0104960E94C203AE014F5F0E
:1039F0005F4F66E970E082E394E00E9475040E94E4
:103A00008B028091A2069091A3068F519240C1F43F
:103A100080911F048C838FEF8D838E83BE016F5F37
:103A20007F4FCE0104960E94C203AE014F5F5F4FED
:103A300066E970E082E394E00E9475040E948B02C4
:103A40008091A2069091A3068C529240C1F480917D
:103A500000018C838FEF8D838E83BE016F5F7F4F5C
:103A6000CE0104960E94C203AE014F5F5F4F66E92C
:103A700070E082E394E00E9475040E948B028091C2
:103A8000A2069091A3068B539240C1F4909101013C
:103A90008FEF8C838D839E83BE016F5F7F4FCE013E
:103AA00004960E94C203AE014F5F5F4F66E970E06B
:103AB00082E394E00E9475040E948B028091A2062A
:103AC0009091A3068B549240D9F5E0911C04F0E04C
:103AD000EE0FFF1FEB58FE4F0190F081E02D09958E
:103AE0000E948B020E94A20380910401882341F16D
:103AF00080911904882309F44DC180910E0481112D
:103B000018C064E070E080E090E00E9425122B0174
:103B10003C018AE094E00E948904BFEF4B1A5B0AE3
:103B20006B0A7B0A50920D0440920C0481E0809352
:103B30000E048AE094E00E945D1181110E94B41984
:103B40008091A2069091A30685559240C1F51C82F2
:103B50001D821E82BE016F5F7F4FCE0104960E94C0
:103B6000C203AE014F5F5F4F66E970E082E394E00D
:103B70000E9475040E948B0222C0882359F0833072
:103B800009F45FC008F052C0813009F460C082308F
:103B900009F461C0F0E0EE0FFF1FE859FF4FA59157
:103BA000B491EC91E923FF24F394E11101C0F12CCD
:103BB000CF2CD12CE0902504EE2309F474CE009193
:103BC000A2061091A30632E00F34130709F0CFC10B
:103BD000CA94CD2809F022C10E948C0D85E090E0A6
:103BE0000E94860BFE1011C5809121049091220441
:103BF000A0912304B09124044496A11DB11D80938B
:103C0000210490932204A0932304B0932404F092FF
:103C1000250480E090E0892B09F435CE0E94230131
:103C2000882309F420CE0E9400001DCE8730B1F019
:103C30008830D1F0843009F0ADCF809180008F7D45
:103C400003C0809180008F7780938000A3CF84B5DC
:103C50008F7784BD9FCF84B58F7DFBCF8091B000DF
:103C60008F778093B00096CF8091B0008F7DF9CF91
:103C700081EF91E00E947F118091020190910301F8
:103C80000E94F11100910201109103010C33110502
:103C900091F48091A20381110BC08EE993E00E9400
:103CA00089041093A1030093A00381E08093A203F1
:103CB0008EE993E035CE0E31110591F48091960393
:103CC00081110BC082E993E00E948904109395034F
:103CD0000093940381E08093960382E993E020CEE1
:103CE0000230110509F021CE80918A0381110BC0A9
:103CF00086E893E00E948904109389030093880367
:103D000081E080938A0386E893E00ACE0091020165
:103D1000109103010C33110591F48091D2038111AC
:103D20000BC08EEC93E00E9489041093D1030093A2
:103D3000D00381E08093D2038EEC93E033CE0E313A
:103D4000110591F48091C60381110BC082EC93E0C0
:103D50000E9489041093C5030093C40381E08093FB
:103D6000C60382EC93E01ECE0230110509F01FCE8F
:103D70008091BA0381110BC086EB93E00E94890405
:103D80001093B9030093B80381E08093BA0386EBE4
:103D900093E008CE00910201109103010C3311054C
:103DA00091F48091020481110BC08EEF93E00E9488
:103DB0008904109301040093000481E080930204BD
:103DC0008EEF93E0B8CE0E31110591F48091F60399
:103DD00081110BC082EF93E00E9489041093F503D8
:103DE0000093F40381E08093F60382EF93E0A3CE87
:103DF0000A30110509F0A4CE8091EA0381110BC0AD
:103E000086EE93E00E9489041093E9030093E8038F
:103E100081E08093EA0386EE93E08DCEFE1409F4F0
:103E2000BFC58091210490912204A0912304B091F8
:103E30002404883E53E09507A105B10500F5892BC0
:103E40008A2B8B2B09F4DDC3012E000C220B330BC4
:103E50000093A2061093A3062093A4063093A50610
:103E600081E692E00E94D0110E94F0191092210484
:103E7000109222041092230410922404AFCE883BA7
:103E80002BE09207A105B105C8F5813D9740A1053A
:103E9000B10508F4B6C319821A821B82BE016C5F99
:103EA0007F4FCE0101960E94C203AE014C5F5F4F6F
:103EB00066E970E082E394E00E9475040E948B0240
:103EC0008B859C85AD85BE858093A2069093A306C5
:103ED000A093A406B093A506012E000C220B330B71
:103EE00000939E0610939F062093A0063093A10690
:103EF00063E090E080E00E94B21970CE803A2FE03B
:103F00009207A105B105F8F4893B9B40A105B105D5
:103F100008F477C38F859889A989BA898093A20606
:103F20009093A306A093A406B093A506012E000CBF
:103F3000220B330B00939E0610939F062093A0063E
:103F40003093A1064BCE883823E19207A105B10535
:103F500008F057C3813A9F40A105B10508F451C349
:103F60008FE192E0092E000CAA0BBB0B66C042E069
:103F70000F31140709F08AC0809121049091220426
:103F8000A0912304B0912404CA94CD2889F4803DE3
:103F90009740A105B10509F021CE80ED97E00E9480
:103FA000F1114FEF50E06FEF70E08FEF90E067C2DC
:103FB000FE1409F4F5C4883E33E09307A105B1056A
:103FC00020F5892B8A2B8B2B09F41BC38EE692E0FC
:103FD0000E94D011809120048F5F83708093200411
:103FE0000E94DE11E0912004F0E0EE0FFF1FEB5580
:103FF000FE4F808180931F040E94DE116091200497
:1040000090E080E00E94B21931CF815D9740A10914
:10401000B109873E9340A105B10508F0F2C2609155
:10402000200490E080E00E94B21980912004811168
:104030000DC08B899C89AD89BE898093A20690931F
:10404000A306A093A406B093A506C8CD813019F4A9
:104050008BEF91E087CF823049F48092A206909254
:10406000A306A092A406B092A506B8CD833009F0AD
:10407000C8C22F81388549855A852093A20630937E
:10408000A3064093A4065093A506A8CD32E00C32B7
:10409000130709F0D5C08091210490912204A091CA
:1040A0002304B0912404CA94CD2839F4803D97406C
:1040B000A105B10509F092CD70CFFE1409F470C4CA
:1040C000883E23E09207A105B10510F5892B8A2BC4
:1040D0008B2B09F496C289E792E00E94D01180915F
:1040E000160490E0019665E070E00E94FA25809346
:1040F00016040E94DE11E0911604F0E0EE0FFF1F9F
:10410000E355FE4F8081809300010E94DE11AECE08
:10411000815D9740A109B109873E9340A105B10592
:1041200008F06FC280911604811133C080910401A0
:104130008823E1F01092040186E892E00E94D011F9
:1041400060E087E090E00E94B2194FEF50E06FEF1F
:1041500070E080EA90E00E94DD0C80919E069091D4
:104160009F06A091A006B091A10667CF81E0809341
:10417000040183E992E00E94D01161E087E090E0C1
:104180000E94B2194FEF50E06FEF70E080E690E0D0
:10419000E2CF8130C9F480911A04882351F0109243
:1041A0001A048FE992E00E94D01160E088E090E06C
:1041B000CACF81E080931A0480EB92E00E94D01174
:1041C00061E088E090E0DCCF8230C9F4809119048E
:1041D000882351F01092190480EC92E00E94D011D3
:1041E00060E089E090E0AFCF81E08093190485ED35
:1041F00092E00E94D01161E089E090E0C1CF83306D
:1042000019F48BE392E0AECE843009F0FAC18091CC
:104210001804882351F01092180489EE92E00E944D
:10422000D01160E08BE090E08ECF81E080931804A5
:104230008BEF92E00E94D01161E08BE090E0A0CF84
:1042400042E00B33140709F067C08091210490917C
:104250002204A0912304B0912404CA94CD2809F427
:1042600096CEFE1409F49CC3883E33E09307A10563
:10427000B10500F5892B8A2B8B2B09F4C2C18CE088
:1042800093E00E94D0118091170490E0019663E0C2
:1042900070E00E94FA25809317040E94DE11E091DD
:1042A0001704F0E0EE0FFF1FE954FE4F808180936A
:1042B00001012BCF815D9740A109B109873E934051
:1042C000A105B10508F09DC18091170481110DC0B1
:1042D0008CE390E090930301809302014FEF50E054
:1042E00070E060E08FEF90E036CF813049F48EE1EE
:1042F00090E090930301809302014AEA50E0F0CFEE
:10430000823009F02ACF8AE090E0909303018093F5
:10431000020145E550E0E4CF51E00B3F150709F0FD
:1043200092C0CA94CD2809F457CCFE1409F438C3BE
:104330008091210490912204A0912304B09124043F
:10434000883E23E09207A105B105C0F4892B8A2B92
:104350008B2B09F456C1012E000C220B330B00935A
:10436000A2061093A3062093A4063093A5068AE123
:1043700093E00E94D0110E94D21978CD883B3BE097
:104380009307A105B105B8F5813D9740A105B10599
:1043900008F437C119821A821B82BE016C5F7F4FFD
:1043A000CE0101960E94C203AE014C5F5F4F66E9E9
:1043B00070E082E394E00E9475040E948B028B857A
:1043C0009C85AD85BE858093A2069093A306A0939D
:1043D000A406B093A5068BEF91E0092E000CAA0B62
:1043E000BB0B80939E0690939F06A093A006B0936C
:1043F000A10662E07ECD803A2FE09207A105B105CB
:1044000008F0A1CD893B9B40A105B10508F4F9C096
:104410008F859889A989BA898093A2069093A3066B
:10442000A093A406B093A5068BEF91E0092E000C93
:10443000AA0BBB0B80939E0690939F06A093A006A9
:10444000B093A106CBCB42E00730140709F0E6C0D9
:104450008091210490912204A0912304B09124041E
:10446000CA94CD28B9F5803D27E09207A105B10592
:1044700049F44FEF50E06FEF70E090E080E00E9471
:10448000DD0CACCB883B3BE09307A105B10541F4C3
:1044900080911B0444E650E06FEF70E090E0EFCFB6
:1044A000803A4FE09407A105B10539F480911B04CF
:1044B0004FEF50E066E970E0F1CF88389341A105F5
:1044C000B10509F08BCB4FEF50E06FEF70E080EE5D
:1044D00090E0D5CFFE1409F463C2883E23E0920732
:1044E000A105B10510F5892B8A2B8B2B09F489C006
:1044F0008092A2069092A306A092A406B092A5066E
:104500008AE293E00E94D01180911B0490E00F9604
:104510006FEF70E00E940E2680931B040E94DE1154
:1045200060911B0484E090E06DCD883B3BE09307F5
:10453000A105B10580F5813D9740A105B10508F4BD
:1045400060C019821A821B82BE016C5F7F4FCE0150
:1045500001960E94C203AE014C5F5F4F66E970E0B6
:1045600082E394E00E9475040E948B028B859C85F7
:10457000AD85BE858093A2069093A306A093A40662
:10458000B093A50680929E0690929F06A092A006E8
:10459000B092A1062ECF803A2FE09207A105B10577
:1045A000A0F4893B9B40A105B10558F18EE092E053
:1045B000092E000CAA0BBB0B8093A2069093A306B6
:1045C000A093A406B093A50614CF883843E19407BE
:1045D000A105B10550F4813A9F40A105B10588F0CD
:1045E0008F89988DA98DBA8DE7CF803727E1920703
:1045F000A105B10530F489389341A105B10508F052
:10460000AFCC85E090E00E94860B109221041092BE
:1046100022041092230410922404F9CA42E00E30BE
:104620001407E1F58091210490912204A0912304C4
:10463000B0912404CA94CD2809F4A9CCFE1409F43D
:10464000AFC1883E33E09307A105B105A0F4892BE3
:104650008A2B8B2BB1F28AE293E00E94D0118091D9
:1046600005018353809305010E94DE1160910501CD
:1046700086E090E0C7CC815D9740A109B109873EF3
:104680009340A105B10508F0BCCF8092A20690929C
:10469000A306A092A406B092A506ABCE52E00431C8
:1046A0001507D9F58091210490912204A09123044B
:1046B000B0912404CA94CD2839F4803D9740A105D7
:1046C000B10509F08BCA69CCFE1409F469C1883EB2
:1046D00043E09407A105B105A8F4892B8A2B8B2B05
:1046E00009F48FCF8AE293E00E94D01180910601F5
:1046F0008353809306010E94DE116091060185E0DC
:1047000090E080CC815D9740A109B109873E93403C
:10471000A105B10508F4B9CF74CF82E00B341807B6
:1047200009F09AC0CA94CD2809F456CAFE1409F4B7
:1047300037C18091210490912204A0912304B0916B
:104740002404883E23E09207A105B105C0F4892B1B
:104750008A2B8B2B09F455CF8F819885A985BA8533
:104760008093A2069093A306A093A406B093A506F7
:1047700085E393E00E94D0110E94B41977CB883B67
:104780002BE09207A105B105A0F5813D9740A10559
:10479000B10508F436CF19821A821B82BE016C5F04
:1047A0007F4FCE0101960E94C203AE014C5F5F4F66
:1047B00066E970E082E394E00E9475040E948B0237
:1047C0008B859C85AD85BE858093A2069093A306BC
:1047D000A093A406B093A5062F81388549855A85F4
:1047E00020939E0630939F064093A0065093A10607
:1047F00000CE803A3FE09307A105B105F8F4893B6C
:104800009B40A105B10508F4FCCE8F859889A98944
:10481000BA898093A2069093A306A093A406B093AE
:10482000A5062F81388549855A8520939E063093A9
:104830009F064093A0065093A106D0C9883833E163
:104840009307A105B10508F0DCCE813A9F40A10590
:10485000B10508F085CBD5CE0555124009F0BEC98B
:104860008091210490912204A0912304B09124040A
:1048700021E0C216D10431F5803D37E09307A10550
:10488000B10549F480ED97E00E94F1114FEF50E03F
:1048900070E060E08ACB80379741A105B10509F04F
:1048A0009DC980E797E10E94F1114FEF50E06FEF53
:1048B00070E08FEF90E00E94DD0C4FEF50E064E677
:1048C00070E073CBFE1409F46BC0883B5BE0950786
:1048D000A105B105E0F4813D9740A105B10508F4BB
:1048E00090CE83E493E00E94D01180919E06909137
:1048F0009F06A091A006B091A1068093A206909376
:10490000A306A093A406B093A50660E0F2CA88357A
:104910003BE19307A105B10508F073CE81379741BC
:10492000A105B10508F46DCE81E593E00E94D01198
:104930001092200410921F0410921E0410921D0465
:1049400010921C0410921B048FEF80930601809339
:10495000050181E08093040110921A041092190459
:104960002CE330E03093030120930201809318047C
:1049700060E0C6010E94B2195FEFC51AD50AC114E2
:1049800084E0D806A9F72B893C894D895E8920935C
:10499000A2063093A3064093A4065093A506B5CF74
:1049A00085E090E00E94860B1FC98F929F92AF9284
:1049B000BF92CF92DF92EF92FF92CF93DF93EC0101
:1049C000688179818A819B816115710581059105D5
:1049D00021F464E279ED8BE597E02DE133EF41E0DE
:1049E00050E00E94872549015A019B01AC01A7EACA
:1049F000B1E40E94A6256B017C01ACEEB4EFA501E9
:104A000094010E94B425C60ED71EE81EF91EF7FEBB
:104A100006C081E0C81AD108E10880E8F80AC88217
:104A2000D982EA82FB82C701B6019F77DF91CF91DD
:104A3000FF90EF90DF90CF90BF90AF909F908F90BE
:104A400008958F929F92AF92BF92CF92DF92EF9292
:104A5000FF926091090170910A0180910B01909180
:104A60000C01611571058105910521F464E279ED70
:104A70008BE597E02DE133EF41E050E00E94872580
:104A800049015A019B01AC01A7EAB1E40E94A625A5
:104A90006B017C01ACEEB4EFA50194010E94B4253A
:104AA000C60ED71EE81EF91EF7FE06C081E0C81A22
:104AB000D108E10880E8F80AC0920901D0920A0101
:104AC000E0920B01F0920C01C701B6019F77FF90B5
:104AD000EF90DF90CF90BF90AF909F908F90089510
:104AE0006093090170930A0180930B0190930C016C
:104AF0000895262FF999FECF1FBA92BD81BD20BD22
:104B00000FB6F894FA9AF99A0FBE01960895052EF9
:104B100097FB1EF400940E949E2557FD07D00E942B
:104B2000B92507FC03D04EF40C949E255095409572
:104B3000309521953F4F4F4F5F4F08959095809549
:104B4000709561957F4F8F4F9F4F08950E94DB2591
:104B5000A59F900DB49F900DA49F800D911D1124D1
:104B60000895B7FF0C94A6250E94A625821B930BDF
:104B70000895A1E21A2EAA1BBB1BFD010DC0AA1F9E
:104B8000BB1FEE1FFF1FA217B307E407F50720F0B6
:104B9000A21BB30BE40BF50B661F771F881F991F31
:104BA0001A9469F760957095809590959B01AC017A
:104BB000BD01CF010895A29FB001B39FC001A39F83
:104BC000700D811D1124911DB29F700D811D112446
:104BD000911D0895DB018F939F930E94A625BF919D
:104BE000AF91A29F800D911DA39F900DB29F900D3C
:104BF00011240895AA1BBB1B51E107C0AA1FBB1FAC
:104C0000A617B70710F0A61BB70B881F991F5A9558
:104C1000A9F780959095BC01CD01089597FB072ECB
:104C200016F4009407D077FD09D00E94FA2507FCFE
:104C300005D03EF4909581959F4F089570956195AC
:104C40007F4F08950E94DB25B7FF0895821B930BC9
:104C50000895EE0FFF1F0590F491E02D099481E077
:0C4C600090E0F8940C943426F894FFCFF8
:104C6C006EFF3C0001FFFF390501000000003131EF
:104C7C00295A1B750A000000002312231223125D0F
:104C8C000F590F560F0000000070072C072A075D04
:104C9C000F590FB600D604D30A0B0CB309970FAEFD
:104CAC00088D150F0BA10B010A210FA10E9D12C926
:104CBC000F3B14590A3C0BB307B6163F124C19BFE5
:104CCC0017D718FF0D4C180911BC0D0A10420E5EB7
:104CDC00109F102417D30A0B0CB309970F8D1509CD
:104CEC00110F0BA10B210F5E10A10E9D12C90F3BD2
:104CFC00143C0BB6164C19D718FF0D4C18BC0DBF35
:104D0C0017420E241700002000400060006E008245
:104D1C00009600AA00BE00FF00AA0055000000315A
:104D2C0000F9183000FB302C001C472600825A1F5B
:104D3C00006D6A170041760E00897D0400000000AA
:104D4C005901B900E600A6011701F50009010D0A89
:104D5C0000496E74657276616C20007061727479B2
:104D6C005F6D6F64657300636F6C6F727300766157
:104D7C006C75650073617475726174696F6E007324
:104D8C00746174655F73656C6563740073657474CA
:104D9C00696E675F73656C65637400696E746572C8
:104DAC0076616C5F73656C65637400616C6C5F6DD0
:104DBC006F64657300656E7465725F736C656570A6
:104DCC00004E657874207061747465726E004E6567
:104DDC007874205374617465004E65787420536543
:104DEC007474696E67004175746F706C6179204FD3
:104DFC006666004175746F706C6179204F6E00525D
:104E0C00616E646F6D204F72646572204F66660030
:104E1C0052616E646F6D204F72646572204F6E002C
:104E2C0052616E646F6D20496E7476657276616C3A
:104E3C00204F66660052616E646F6D20496E747609
:104E4C00657276616C204F6E0053617665205365F8
:104E5C007474696E6773204F6666005361766520C3
:104E6C0053657474696E6773204F6E004E65787469
:104E7C0020496E74657276616C004E6578742050B2
:104E8C0061727479204D6F6465004E6578742043AF
:104E9C006F6C6F72004E65787420416C6C204D6F96
:104EAC006465004368616E67652053746174657353
:104EBC000052657365742053657474696E67730072
:00000001FF
